:020000040800F2
:1000000010040020C10100081902000811020008B4
:100010001502000809020008C103000800000000E2
:100020000000000000000000000000006502000861
:100030000D0200080000000061020008BD02000877
:10004000DB010008DB010008DB010008DB01000820
:10005000DB010008DB010008DB010008DB01000810
:10006000DB010008DB010008DB010008DB01000800
:10007000DB010008DB010008DB010008DB010008F0
:10008000DB010008DB010008DB010008DB010008E0
:10009000DB010008DB010008DB010008DB010008D0
:1000A000DB010008DB010008DB010008DB010008C0
:1000B000DB010008DB010008DB010008DB010008B0
:1000C000DB010008DB010008DB010008DB010008A0
:1000D000DB010008DB010008DB010008DB01000890
:1000E000DB010008DB010008DB010008DB01000880
:1000F000DB010008DB010008DB010008DB01000870
:10010000DB010008DB010008DB010008DB0100085F
:10011000DB010008DB010008DB010008DB0100084F
:10012000DB010008DB010008DB010008DB0100083F
:10013000DB010008DB010008DB010008DB0100082F
:10014000DB010008DB010008DB010008DB0100081F
:10015000DB010008DB010008DB010008DB0100080F
:10016000DB010008DB010008DB010008DB010008FF
:10017000DB010008DB010008DB01000800000000D3
:10018000DB010008DB010008DB010008DB010008DF
:10019000DB010008DB010008DB01000800000000B3
:1001A000DB010008DB010008DB010008DFF80CD0F0
:1001B00000F018F8004800477504000810040020FB
:1001C0000648804706480047FEE7FEE7FEE7FEE7F1
:1001D000FEE7FEE7FEE7FEE7FEE7FEE7C5020008F2
:1001E000AD010008064C074D06E0E06840F0010351
:1001F00094E8070098471034AC42F6D3FFF7DAFFD3
:100200007006000890060008FFE7FEE77047000050
:10021000FFE7FEE7FFE7FEE77047000082B08DF8DA
:10022000070000919DF90700B0F1FF3F0CDCFFE7EC
:10023000009800019DF8071001F00F014EF61452CE
:10024000CEF20002885409E0009800019DF90710E1
:100250004EF20042CEF200028854FFE702B070472F
:10026000704700007047000080B582B00090009891
:100270000138B0F1807F03D3FFE70120019019E03E
:10028000009801384EF21401CEF2000108604FF0E0
:10029000FF300F21FFF7C2FF4EF21801CEF200012E
:1002A000002008604EF21002CEF200020721116019
:1002B0000190FFE7019802B080BD000080B500F01A
:1002C00097F880BD80B582B04EF68851CEF200011D
:1002D000086840F47000086043F60001C4F20201AF
:1002E000086840F001000860FFE743F60000C4F230
:1002F000020000688007002801D4FFE7F5E7FFE768
:1003000043F60801C4F20201086840F0800008606A
:1003100000200190FFE701984F2805D8FFE7FFE78D
:10032000019801300190F6E743F60801C4F202019A
:10033000086840F09000086000200190FFE70198F5
:100340004F2805D8FFE7FFE7019801300190F6E755
:10035000FFE743F60801C4F20201086820F0030039
:10036000086043F60002C4F2020210684FF6FF7301
:10037000CFF6F66318401060106820F480201060FB
:1003800000200860FFE743F60800C4F2020000689E
:10039000012008B9FFE7F6E743F60401C4F20201C1
:1003A00043F21000C2F20040086043F60C01C4F2B0
:1003B00002010020086000F02FF902B080BD0000AB
:1003C000FFE7FEE781B0009000984FF47A71484350
:1003D00040F20801C2F200010860FFE740F20800A5
:1003E000C2F20000006808B1FFE7F7E701B070470C
:1003F00040F20800C2F20000006840B1FFE740F29E
:100400000801C2F20001086801380860FFE7704780
:1004100043F63001C4F20201086840F008000860A9
:1004200040F60041C4F20201086820F44040086030
:10043000086840F48040086040F60C41C4F20201B4
:10044000086820F44040086040F60441C4F202010C
:10045000086820F08000086040F60841C4F20201FC
:10046000086820F440400860086840F44040086094
:100470007047000080B582B00020019000F0D0F8F5
:10048000FFF7C6FF40F61841C4F202010091086868
:1004900020F080000860086840F0800008604FF499
:1004A0007A70FFF78FFF0099086820F40000086059
:1004B000086840F400000860FFE7FEE783B0002012
:1004C0000290019043F60001C4F20201086840F076
:1004D00001000860FFE702980130029043F6000037
:1004E000C4F20200006800F002000190FFE70199E9
:1004F0000020009039B9FFE70298B0F5A06018BF5E
:1005000001200090FFE70098C0070028E3D1FFE733
:1005100043F60000C4F2020000688007002802D4FD
:10052000FFE7FFE7FEE743F64001C4F20201086877
:1005300040F08050086047F20001C4F200010868F2
:1005400040F44040086043F60801C4F20201086824
:100550000860086840F400400860086840F4A05053
:10056000086043F60401C4F2020147F61000C0F629
:100570000020086043F60001C4F20201086840F060
:1005800080700860FFE743F60000C4F202000068D4
:100590008001002801D4FFE7F5E747F20001C4F22B
:1005A0000001086840F480300860FFE747F204006B
:1005B000C4F200000068C003002801D4FFE7F5E79B
:1005C00047F20001C4F20001086840F400300860FE
:1005D000FFE747F20400C4F200000068800300282F
:1005E00001D4FFE7F5E743F60801C4F20201086809
:1005F00020F003000860086840F002000860FFE790
:1006000043F60800C4F2020000680007002801D485
:10061000FFE7F5E703B0704780B5FFF74FFF80BDF8
:1006200080B540F20000C2F2000000684DF6836120
:10063000C4F21B31A0FB0110800CFFF715FE10B1B6
:10064000FFE7FFE7FEE74FF0FF300021FFF7E6FD91
:1006500080BD02E008C8121F08C1002AFAD1704705
:100660007047002001E001C1121F002AFBD1704732
:100670009006000800000020080000005206000854
:100680009806000808000020080400006206000820
:08069000001C4E0E00000000EA
:04000005080001AD41
:00000001FF
