:020000040800F2
:1000000010040020C10100081902000811020008B4
:100010001502000809020008C103000800000000E2
:100020000000000000000000000000006502000861
:100030000D0200080000000061020008BD02000877
:10004000DB010008DB010008DB010008DB01000820
:10005000DB010008DB010008DB010008DB01000810
:10006000DB010008DB010008DB010008DB01000800
:10007000DB010008DB010008DB010008DB010008F0
:10008000DB010008DB010008DB010008DB010008E0
:10009000DB010008DB010008DB010008DB010008D0
:1000A000DB010008DB010008DB010008DB010008C0
:1000B000DB010008DB010008DB010008DB010008B0
:1000C000DB010008DB010008DB010008DB010008A0
:1000D000DB010008DB010008DB010008DB01000890
:1000E000DB010008DB010008DB010008DB01000880
:1000F000DB010008DB010008DB010008DB01000870
:10010000DB010008DB010008DB010008DB0100085F
:10011000DB010008DB010008DB010008DB0100084F
:10012000DB010008DB010008DB010008DB0100083F
:10013000DB010008DB010008DB010008DB0100082F
:10014000DB010008DB010008DB010008DB0100081F
:10015000DB010008DB010008DB010008DB0100080F
:10016000DB010008DB010008DB010008DB010008FF
:10017000DB010008DB010008DB01000800000000D3
:10018000DB010008DB010008DB010008DB010008DF
:10019000DB010008DB010008DB01000800000000B3
:1001A000DB010008DB010008DB010008DFF80CD0F0
:1001B00000F018F8004800475D0600081004002011
:1001C0000648804706480047FEE7FEE7FEE7FEE7F1
:1001D000FEE7FEE7FEE7FEE7FEE7FEE7C5020008F2
:1001E000AD010008064C074D06E0E06840F0010351
:1001F00094E8070098471034AC42F6D3FFF7DAFFD3
:100200001C0B00083C0B0008FFE7FEE770470000EE
:10021000FFE7FEE7FFE7FEE77047000082B08DF8DA
:10022000070000919DF90700B0F1FF3F0CDCFFE7EC
:10023000009800019DF8071001F00F014EF61452CE
:10024000CEF20002885409E0009800019DF90710E1
:100250004EF20042CEF200028854FFE702B070472F
:10026000704700007047000080B582B00090009891
:100270000138B0F1807F03D3FFE70120019019E03E
:10028000009801384EF21401CEF2000108604FF0E0
:10029000FF300F21FFF7C2FF4EF21801CEF200012E
:1002A000002008604EF21002CEF200020721116019
:1002B0000190FFE7019802B080BD000080B500F01A
:1002C00015F980BD80B582B04EF68851CEF200019E
:1002D000086840F47000086043F60001C4F20201AF
:1002E000086840F001000860FFE743F60000C4F230
:1002F000020000688007002801D4FFE7F5E7FFE768
:1003000043F60801C4F20201086840F0800008606A
:1003100000200190FFE701984F2805D8FFE7FFE78D
:10032000019801300190F6E743F60801C4F202019A
:10033000086840F09000086000200190FFE70198F5
:100340004F2805D8FFE7FFE7019801300190F6E755
:10035000FFE743F60801C4F20201086820F0030039
:10036000086043F60002C4F2020210684FF6FF7301
:10037000CFF6F66318401060106820F480201060FB
:1003800000200860FFE743F60800C4F2020000689E
:10039000012008B9FFE7F6E743F60401C4F20201C1
:1003A00043F21000C2F20040086043F60C01C4F2B0
:1003B00002010020086000F085FB02B080BD000053
:1003C000FFE7FEE780B58CB0DDF83CC0DDF838C053
:1003D0000B900A910992089309980790FFE70798F4
:1003E0000899884227D8FFE708980799401A06908D
:1003F0000798059001200490FFE704980F99884220
:1004000013D8FFE70B980A9900F080F8059800F0E0
:1004100059F80B980A9900F081F8069800F052F804
:10042000FFE7049801300490E7E7FFE70E9907988B
:1004300008440790D3E709980390FFE703980899C9
:10044000884227D8FFE708980399401A029003983A
:10045000019001200090FFE700980F99884213D87F
:10046000FFE70B980A9900F051F8029800F02AF87B
:100470000B980A9900F052F8019800F023F8FFE772
:10048000009801300090E7E7FFE70E9903980844D1
:100490000390D3E70CB080BD81B0009000984FF47A
:1004A0007A71484340F20801C2F200010860FFE798
:1004B00040F20800C2F20000006808B1FFE7F7E769
:1004C00001B0704781B00090009840F20801C2F27C
:1004D00000010860FFE740F20800C2F20000006877
:1004E00008B1FFE7F7E701B07047000040F20800ED
:1004F000C2F20000006840B1FFE740F20801C2F21A
:100500000001086801380860FFE7704782B0019079
:10051000009100980199886202B0704782B0019002
:10052000009100980199886102B0704787B00690E9
:100530000591049203930698006801900698C0689C
:1005400000900020ADF80A00FFE7BDF80A000F2870
:1005500032D8FFE7BDF80A100398C840C00720B39F
:10056000FFE7BDF80A004100032000FA01F20199FB
:10057000914301910599BDF80A20520001FA02F257
:10058000019911430191BDF80A10490000FA01F1E7
:100590000098884300900498BDF80A10490000FABA
:1005A00001F1009808430090FFE7FFE7BDF80A005B
:1005B0000130ADF80A00C8E7019806990860009874
:1005C0000699C86007B0704786B005908DF8131083
:1005D000039202939DF81300012806D1FFE7029AC7
:1005E000059948681043486005E0029A05994868F3
:1005F00090434860FFE70598806800900020ADF8C0
:100600000600FFE7BDF806000F2821D8FFE7BDF878
:1006100006100298C840C00798B1FFE7BDF8060071
:100620004100032000FA01F10098884300900398EC
:10063000BDF80610490000FA01F100980843009047
:10064000FFE7FFE7BDF806000130ADF80600D9E787
:1006500000980599886006B07047000080B59EB08C
:1006600000200E901D9000F031FA40F6044000F09A
:1006700067F940F6034000F063F940F6064000F0E9
:100680005FF94FF4406000F05BF90E9A41F2000010
:10069000C4F2020011900121189108231593FFF76D
:1006A00045FF0E9A189940F60040C4F202001290DD
:1006B00080231393FFF73AFF0E9A159B189941F682
:1006C0000000C4F202001490FFF730FF0E9A189950
:1006D0000020C4F20200169020231793FFF726FF94
:1006E0000E991198159B03220F92FFF76DFF0E993B
:1006F0000F9A1298139BFFF767FF0E990F9A1498A1
:10070000159BFFF761FF0E990F9A1698179BFFF73D
:100710005BFF11981599FFF7F9FE12981399FFF7EF
:10072000F5FE14981599FFF7F1FE16981799FFF743
:10073000EDFE4FF4FA701090FFF7AEFE1198159988
:10074000FFF7ECFE12981399FFF7E8FE149815993D
:10075000FFF7E4FE16981799FFF7E0FE1098FFF7F1
:100760009BFE11981599FFF7D1FE12981399FFF788
:10077000CDFE14981599FFF7C9FE16981799FFF743
:10078000C5FE18981C90FFE71C9848F2A061C0F2C3
:100790000101884218DCFFE741F20000C4F20200C8
:1007A0000C9008210D91FFF7B1FE0220FFF78AFEA1
:1007B0000C980D99FFF7B2FE0D98FFF783FEFFE747
:1007C0001C9801301C90DFE741F20000C4F20200E7
:1007D0000821FFF7A3FE6420FFF75EFE01201B90B7
:1007E000FFE71B9848F2A061C0F20101884218DCC3
:1007F000FFE740F60040C4F202000A9080210B910E
:10080000FFF784FE0420FFF75DFE0A980B99FFF7BF
:1008100085FE0620FFF756FEFFE71B9801301B9070
:10082000DFE740F60040C4F202008021FFF776FEC9
:100830006420FFF731FE01201A90FFE71A9848F272
:10084000A061C0F20101884218DCFFE741F6000018
:10085000C4F20200089008210991FFF757FE062014
:10086000FFF730FE08980999FFF758FE0420FFF7BC
:1008700029FEFFE71A9801301A90DFE741F60000E1
:10088000C4F202000821FFF749FE6420FFF704FECE
:1008900001201990FFE7199848F2A061C0F2010108
:1008A000884217DCFFE70020C4F2020006902021F6
:1008B0000791FFF72BFE0820FFF704FE0698079923
:1008C000FFF72CFE0220FFF7FDFDFFE7199801302E
:1008D0001990E0E70020C4F2020004902021059165
:1008E000FFF71CFE6420FFF7D7FD41F20000C4F2C1
:1008F000020008210391FFF709FE40F60040C4F210
:1009000002008021FFF702FE039941F60000C4F2C5
:100910000200FFF7FBFD04980599FFF7F7FDFFE7DD
:1009200069464FF4FA7048600220086041F2000006
:10093000C4F20200082100223223FFF743FDEFE753
:1009400081B0ADF80200BDF8020000F01F020121E5
:1009500001FA02F3810943F60002C4F20202885848
:100960001843885001B0704783B000200290019076
:1009700043F60001C4F20201086840F0010008607B
:10098000FFE702980130029043F60000C4F2020033
:10099000006800F002000190FFE70199002000903C
:1009A00039B9FFE70298B0F5A06018BF01200090A8
:1009B000FFE70098C0070028E3D1FFE743F60000F7
:1009C000C4F2020000688007002802D4FFE7FFE7B6
:1009D000FEE743F64001C4F20201086840F080508F
:1009E000086047F20001C4F20001086840F440408A
:1009F000086043F60801C4F202010868086008684C
:100A000040F400400860086840F4A050086043F6D5
:100A10000401C4F2020147F61000C0F6002008608D
:100A200043F60001C4F20201086840F080700860DB
:100A3000FFE743F60000C4F20200006880010028CE
:100A400001D4FFE7F5E747F20001C4F200010868AE
:100A500040F480300860FFE747F20400C4F2000071
:100A60000068C003002801D4FFE7F5E747F2000162
:100A7000C4F20001086840F400300860FFE747F264
:100A80000400C4F2000000688003002801D4FFE7DE
:100A9000F5E743F60801C4F20201086820F00300FC
:100AA0000860086840F002000860FFE743F60800AD
:100AB000C4F2020000680007002801D4FFE7F5E750
:100AC00003B0704780B5FFF74FFF80BD80B540F29F
:100AD0000000C2F2000000684DF68361C4F21B31D1
:100AE000A0FB0110800CFFF7BFFB10B1FFE7FFE791
:100AF000FEE74FF0FF300021FFF790FB80BD02E0E2
:100B000008C8121F08C1002AFAD170477047002098
:100B100001E001C1121F002AFBD17047400B000801
:100B20000000002008000000FE0A0008480B000832
:100B300008000020080400000E0B00080000000060
:080B4000001C4E0E0000000035
:04000005080001AD41
:00000001FF
